:100000000C9434000C943E000C943E000C943E0082
:100010000C943E000C943E000C943E000C943E0068
:100020000C943E000C943E000C943E000C943E0058
:100030000C943E000C9440000C943E000C943E0046
:100040000C943E000C943E000C943E000C943E0038
:100050000C943E000C943E000C943E000C943E0028
:100060000C943E000C943E0011241FBECFEFD8E04C
:10007000DEBFCDBF0E9458000C946D000C940000B0
:100080001F920F920FB60F9211248F939F9387EFB9
:1000900092EC909385008093840085B190E289274B
:1000A00085B99F918F910F900FBE0F901F9018955B
:1000B000259A109280001092810087EF92EC909325
:1000C00085008093840080916F00816080936F0031
:0E00D000789485E080938100FFCFF894FFCFF5
:00000001FF
